S02000005241344D325F4D494E495F4F4C45445F50726F6A656374312E7372656348
S3150000000070090020FD14000051130000F9140000CF
S31500000010F9140000F9140000F9140000F9140000A6
S31500000020000000000000000000000000F9140000BD
S31500000030F914000000000000F9140000F914000093
S31500000040050C0000990D0000B90E0000990F000084
S315000000500348044B834202D0034B03B11847704751
S31500000060100000201000002000000000064B074989
S31500000070C91A891048BF0131491003D0044B0BB18E
S3150000008001481847704700BF1000002010000020EC
S315000000900000000010B5064C237843B9FFF7D8FFDF
S315000000A0044B13B10448AFF300800123237010BD45
S315000000B030000020000000005431000008B5054B58
S315000000C01BB105490548AFF30080BDE80840FFF7BE
S315000000D0CDBF00BF000000003400002054310000F6
S315000000E00122034B1A7008B102791A70704700BFDB
S315000000F00400002010B51A491A4882B000F048FDE5
S31500000100194B186030BB044600F034FA00F02EF9A3
S31500000110204600F097F8012000F0A0F800F026F93C
S3150000012001202146009010232046104A00F0FCF9D9
S315000001301023204619460E4A009400F0F5F900F007
S31500000140A7F84FF47A714FF4FA6002B0BDE8104098
S3150000015001F0D2B82221074B074A084801F0C4F83B
S31500000160E0300000D80400204C000020A416000057
S31500000170AC1600007C160000CC160000901600009D
S31500000180022800D070470249024800F04DBB00BF6C
S3150000019010310000D004002070B5224E04460D46F2
S315000001A001223C21204882B000F048FB336863BB43
S315000001B0ADF804302DBB012302221B4801A98DF89E
S315000001C0054000F0E9FB306028BB184D184C2A7832
S315000001D0032A10D0236809E00121642001F08CF87D
S315000001E023682A78013B032A236004D0002BF3DC22
S315000001F0012A00D100BE01230E4A2B70226002B0F4
S3150000020070BD40238DF80430D5E766210A4B0B4AB2
S315000002100B4801F069F86F21074B084A084801F0BE
S3150000022063F800BF4C000020D80400200400002022
S3150000023000000020A08601007C160000E8160000E1
S31500000240BC16000030B1012800D070470021A7205D
S31500000250FFF7A2BF0146A620FFF79EBF10B50446D2
S3150000026060B1012800D010BD0021C020FFF794FF27
S31500000270BDE810400021A120FFF78EBF0146C8202F
S31500000280FFF78AFF2146BDE81040A020FFF784BF94
S315000002902DE9F0472D4E402334464FF00108A2B019
S315000002A02B4D08368DF80430C4F1B00738190021FB
S315000002B0C0B2FFF771FF00210846FFF76DFF00216E
S315000002C01020FFF769FF002301AA14F83310013349
S315000002D0802B02F8011FF8D101223C21284600F0AC
S315000002E0ADFA01238122284601A900F055FB38BB4F
S315000002F0DFF87090DFF870A099F80020032A14D078
S31500000300DAF800300CE00121642000F0F5FFDAF89D
S31500000310003099F80020013B032ACAF8003004D0C7
S31500000320002BF0DC012A00D100BE0A4B0134B44296
S3150000033089F80080CAF80030B8D122B0BDE8F0874D
S31500000340BE21054B054A064800F0CEFF50000020AE
S31500000350D8040020A08601007C160000D8160000F4
S31500000360BC160000040000200000002000200A4BFC
S31500000370A3F1080203F5806143F8080C08338B42A9
S31500000380FAD10021054B02F20C4243F8081C08334F
S315000003909A42FAD1FFF77CBF580000205C0000208B
S315000003A0012310B50C4C01F0070E04EBC00C03FA48
S315000003B00EF3C9081CF801C0C000DBB22AB143EA3B
S315000003C00C0C044404F801C010BD2CEA030C0444D0
S315000003D004F801C010BD00BF500000202DE9F04F09
S315000003E0203A89B0082B9DF84880D4B24FEA530CC6
S315000003F000F08A8013F0070218BF012202EBD30235
S3150000040012FB0CF212F0FF0A4AD0434A434F02EBAA
S31500000410041909EB0A02DFF80CE10392404A04EBE7
S31500000420440504EBC40402EB850A07EB450B0EEB0F
S31500000430840EA3F10802059376464B46D146DA466A
S315000004408346CDE906C00492049A102A28D8DFE82C
S3150000045002F05E2727274F2727274A272727272700
S3150000046027272A00059A0BF10100082ADDE9003149
S315000004702C465FFA80FB03F101030AF1010A06F13B
S31500000480010609F1010939D0079A0698ABEB020576
S31500000490854208BF9346039A08BF21469342D3D1AB
S315000004A009B0BDE8F08F01F10802357802922C46BA
S315000004B0CDE900310D469DF808700AE0424629460E
S315000004C05846FFF76DFF691CCDB2BD424FEA540492
S315000004D0C8D0E307F2D4B8FA88F22946584652093A
S315000004E0FFF75EFFEFE701F108021D780292DEE7F3
S315000004F001F1080299F800500292D8E7039A934254
S31500000500CED09AF80050D2E74FF0060A7DE701F107
S3150000051008020292F5E700BF54240000B82E00003E
S31500000520442A0000F81600002DE9F043154612781B
S315000005309946A2F1200383B05E2B9DF8287015D84A
S3150000054004460E464FEA590820464B463146009768
S31500000550FFF744FF15F8012FB9F1080FA2F12000AB
S315000005600CBF063444445E28E4B2EDD903B0BDE8BE
S31500000570F08300BF08B50021AE20FFF70DFE002175
S315000005800846FFF709FE00211020FFF705FE0021AF
S31500000590B020FFF701FE00218120FFF7FDFD0021BD
S315000005A05F20FFF7F9FD00212020FFF7F5FD002170
S315000005B00220FFF7F1FD0021A120FFF7EDFD00214C
S315000005C0C020FFF7E9FD0021A420FFF7E5FD00218B
S315000005D0A620FFF7E1FD0021A820FFF7DDFD0021A1
S315000005E03F20FFF7D9FD0021D320FFF7D5FD0021DD
S315000005F00846FFF7D1FD0021D520FFF7CDFD0021EC
S315000006008020FFF7C9FD0021D920FFF7C5FD002195
S315000006102220FFF7C1FD0021DA20FFF7BDFD0021F2
S315000006201020FFF7B9FD0021DB20FFF7B5FD002103
S315000006303020FFF7B1FD00218D20FFF7ADFD002131
S315000006407220FFF7A9FD00200D4BA3F1080203F568
S31500000650806143F8080C08338B42FAD10021094B1C
S3150000066002F20C4243F8081C08339A42FAD1FFF70B
S315000006700FFEBDE808400021AF20FFF78DBD00BF8B
S31500000680580000205C00002008B5FFF733FD00206D
S3150000069008BD00BF2DE9F84F0388DBB182464FF055
S315000006A0000B4FF00109DFF8D0800024304D4FEAEF
S315000006B0CB07DAF8043035F8022BD919898891422C
S315000006C00AD00134032CF4D1BAF800300BF1010B37
S315000006D05B45EAD8BDE8F88FDB5909FA04F603F062
S315000006E0B853B3F1807FF6B298F8BB3413D03342D7
S315000006F031D1204A04F1200612F81630DB09E0D089
S3150000070012F81630012123F08003C82002F81630B3
S3150000071000F0F2FDD5E7334211D0164A04F120016C
S3150000072012F81130DB09CCD112F81130C82043F091
S31500000730800302F81130012100F0DEFDC1E701203F
S3150000074000F0B0FE98F8BB340120334388F8BB3480
S3150000075000F078FEE1E7012000F0A4FE98F8BB3433
S31500000760012023EA060388F8BB3400F06BFEC0E7DD
S31500000770443100000030084000E00140F8B506466C
S31500000780FFF788FFEFF31082012383F31088234FCE
S315000007903B681BB92249CB704023CB703B680133C1
S315000007A03B6082F31088338823B300211D4D08E097
S315000007B01B01134445F82340328801318BB29A421B
S315000007C018D9736853F8314003EBC1029288E003ED
S315000007D04FEA1223D2B2EBD502EB031055F820E014
S315000007E024F4803C2EF4803E45F820E01B0145F8B9
S315000007F020C0DEE7EFF31082012383F310883B6805
S3150000080013B13B68013B3B603B681BB98020044940
S31500000810CB70C87082F31088F8BD00BF5005002069
S31500000820000D08400008084008B5034B0360084661
S31500000830FFF7A4FF002008BD54524F500346002086
S3150000084059601A72704700BF30B5836B83B0044697
S315000008500A466D46A3B193E8030085E80300E16B01
S315000008601A7119601846636B9847A36B1BB195E81C
S31500000870030083E80300002384F82B3003B030BD67
S315000008802B46ECE730B5424B83B01B6A01690193F6
S31500000890019B03F00F230193019A019D0B7C90F8B5
S315000008A02C4094B9C2F30322DBB2A2EB156293404B
S315000008B09B0804D1082003B030BD013BFAD04A782A
S315000008C0D209FAD1B323CB710169002390F826200F
S315000008D0846980F82720026880F82B30C46180F88C
S315000008E02D3080F8283080F82E30036280F82F30C3
S315000008F080F83030546A227894F801E0012A14BF57
S315000009004FF0040C4FF0050C6279120142EA4E02D8
S3150000091094F806E042EACE124CEA0202D2B2CA705B
S3150000092001690A7942F010020A7101690A7963F3D2
S31500000930C3020A7101690A7963F304120A71026932
S31500000940E179137961F3C71313710269537943F09F
S3150000095001035371036893F90F30002B07DB012263
S3150000096003F01F040B495B09A24041F82320BF2274
S315000009700369DA7190F82C302BB1002380F82C3003
S31500000980002003B030BD022203695A70F8E700BFA9
S3150000099000E0014000E100E090F808C0C0E905125F
S315000009A0BCF1010F80F82A3008D10022436880F894
S315000009B026C05B0080F8243080F82520002380F8CC
S315000009C02930FFF75FBF00BF2DE9F0434FF01F0846
S315000009D05F27DF260569DFF8B49185F80080056991
S315000009E04FF0000C2F7005694FF0B30E2E7005689E
S315000009F0634A6E6A05693679624C46F0E0062E74E3
S31500000A000568614B6E6A0569F67846F0E0066E7415
S31500000A1005686E6A0569B678360106F0700646F016
S31500000A200806AE7005686E6A05693778012F777813
S31500000A3014BF0426052646EA4706F6B2EE70056898
S31500000A406E6805694E4514BF7726F7266E710569EF
S31500000A5085F806C0056985F807E04E7B91F91150C7
S31500000A6036015719F6B287F8006344F8250005F1F8
S31500000A70C00653F826706CF3104743F8267053F8F7
S31500000A802660BFF35F8F4FF0010E6E09B60005EAD0
S31500000A90080506F1604606F561460EFA05F5C6F844
S31500000AA0805135604E7B91F90F5036015719F6B2D9
S31500000AB087F8006344F8250005F1C00653F8267050
S31500000AC06CF3104743F8267053F82660BFF35F8F28
S31500000AD06E09B60005EA080506F160460EFA05F548
S31500000AE006F56146C6F8805135604E7B91F9105087
S31500000AF036015719F6B287F8006344F8250005F168
S31500000B00C00653F826706CF3104743F8267053F866
S31500000B102660BFF35F8F6E09B60005EA080506F189
S31500000B2060460EFA05F506F56146C6F88051356051
S31500000B304D7B91F90E102D010A44EDB282F8005357
S31500000B4044F8210001F1C00253F822406CF310442E
S31500000B5043F8224053F82230BFF35F8F4B099B00C6
S31500000B6001EA080103F160430EFA01F103F561435E
S31500000B70C3F8801119609F2203691A70BDE8F083DB
S31500000B8000E100E0540500200060004040420F00F4
S31500000B9070B500250A78016002F5800202F51F6231
S31500000BA0120202618A6842600A7B0272CA69426363
S31500000BB00A6AC0E90E52EFF3108C012282F3108804
S31500000BC00B78C3F109039A400C4B5E6826EA0202D1
S31500000BD05A605B688CF31088FFF7F6FEC0E907558C
S31500000BE0074B80F82950456180F82A50856180F8C6
S31500000BF02B50C36080F82C50284670BD004008403A
S31500000C004349495210B582B0EFF30383103B5F4A64
S31500000C105BB2C03352F8231021F4803142F823101E
S31500000C2052F82330EFF30383594A103B5BB252F874
S31500000C30234094F82D305BBBA369022B22D9E369CC
S31500000C40012B0ED12269137943F010031371226927
S31500000C50137943F0080313712269137923F0100303
S31500000C60137123685B6ADB79002B3ED1012223696D
S31500000C70DB7CDBB28DF807309DF8073084F82D2039
S31500000C8002B010BD2269137943F040031371D6E711
S31500000C90E369002BF4D02268526AD279FAB9032BA1
S31500000CA017D0022B26D0012B34D02269236AD17C9F
S31500000CB06269D154D4E907320132013BC4E90732F3
S31500000CC0002BDDD121690A7963F386120A7102B01D
S31500000CD010BD2269137943F040031371E5E705213E
S31500000CE02046FFF7B1FDE369D9E705212046FFF766
S31500000CF0ABFDBBE72269137943F010031371226938
S31500000D00137943F0080313712269137923F0100352
S31500000D101371CAE794F82A2072B322681D4892F923
S31500000D200F20510902F01F0203FA02F2203140F8A7
S31500000D302120BFF34F8FBFF36F8F04202169CA793B
S31500000D4042F08002CA7121690A7942F010020A71E2
S31500000D5021690A7922F008020A7121690A7922F0CA
S31500000D6010020A712269507021694A7922F0010243
S31500000D704A7184F82C3098E708212269537A03F0E7
S31500000D80F7035372236959708FE700BF0060004074
S31500000D905405002000E100E010B5EFF30383103B9B
S31500000DA0424A5BB2C03352F8231021F4803142F834
S31500000DB0231052F82330EFF303833D4A103B5BB216
S31500000DC052F8234094F82730002B3FD194F829306D
S31500000DD0002B3AD123685B6ADB792BB194F82B3070
S31500000DE013B9236A002B5BD1E3692169002B40D13B
S31500000DF0CB79C02223F08003CB71216901E0013A4F
S31500000E0002D0CB79DB09FAD12368284A93F910304E
S31500000E10C03352F8231021F4803142F8231052F8DF
S31500000E202330236893F91030002B09DB01215A097E
S31500000E30204803F01F03603201FA03F340F8223022
S31500000E402269D37943F04003D37110BD94F826305C
S31500000E50032B1CD094F8242023699A7494F8282034
S31500000E6094F827300132013B84F8282084F8273093
S31500000E7010BD236A6269D35C8B74D4E907320132F0
S31500000E80013BC4E90732002BDFD12169B0E794F8B2
S31500000E902830022BDED194F83030002BDAD110BD89
S31500000EA005212046FFF7D0FC9EE700BF006000400A
S31500000EB05405002000E100E038B5EFF30383334A20
S31500000EC0103B5BB252F8234023685B6ADB79002B48
S31500000ED048D194F829301BB194F82730012B4FD014
S31500000EE0E369DBB12169C023CA7922F04002CA71E5
S31500000EF0216901E0013B02D0CA795206FAD4EFF328
S31500000F000383103B224A5BB2C03352F8231021F40C
S31500000F10803142F8231052F8233038BD94F82A2045
S31500000F202AB3012022681B4D92F90F20510902F0C5
S31500000F301F02203100FA02F245F82120BFF34F8F3D
S31500000F40BFF36F8F2169CA7942F08002CA7104210A
S31500000F502269517021694A7963F300024A7184F863
S31500000F602C00BFE705212046FFF76EFCB1E70821FC
S31500000F702269537A03F0F703537223695970B1E774
S31500000F8094F83030002BADD0AAE700BF54050020FE
S31500000F900060004000E100E038B5EFF303834C4AFF
S31500000FA0103B5BB252F823000269537A517ADC0691
S31500000FB001F0E00151725FFA83FC03F003022BD5C6
S31500000FC003695978490647D40024012580F82B5037
S31500000FD0DC710168FFF7F8FCB32290F8263080F840
S31500000FE02C4080F82830C46180F82A40036984695F
S31500000FF029460462DA71FFF727FCEFF30383103BFF
S31500001000344A5BB2C03352F8231021F4803142F8DF
S31500001010231052F8233038BD002A56D11CF0080F91
S315000010200ED090F82B30002B3ED1B32290F8291029
S315000010300369C1F10301C9B2DA71FFF705FCDCE708
S3150000104090F82C200CF004032AB3002BD5D090F88E
S315000010502B30002B37D1E8E7002AB5D15A78C2F3F6
S3150000106080115206DAD5082280F82B105A700368D0
S3150000107001695A6A94791378527943EAC41343EAA8
S31500001080021343F00203DBB2CB700269537943F0DB
S3150000109001035371B1E7002BAFD003685B6ADB79BC
S315000010A0002BAAD00421C8E70023B32190F82650CC
S315000010B08469026980F82C3080F828500462C36184
S315000010C080F82A30D1710121B7E703697CE700BFB8
S315000010D05405002000600040064B074993F826009F
S315000010E01A6A51F82030C2F302620449D3400B60F9
S315000010F0704700BF00E00140100000206C05002092
S31500001100704700BFF8B54AF2035001233F49404AF1
S31500001110A1F8FE03A2F80431B2F804319BB2002B09
S31500001120FAD14FF0010C4FF4004120250920394C2B
S31500001130394F3A4E67603A4F344BE760A2F800C128
S31500001140384A2660A1602161626193F82620196AF7
S3150000115054F82220344EC1F30261CA40326083F84B
S31500001160135483F8A20093F880241AB993F88134B3
S31500001170990746D0254D95F88034002B36D00022AD
S31500001180224B83F8812483F8802400231F4981F8A9
S31500001190323091F83C301A07FBD543F60130002374
S315000011A01A4A088581F82A3092F83C309B06FBD50E
S315000011B0012005231649F12581F81C011B491162FE
S315000011C082F8263092F82630106A54F82310C0F3BD
S315000011D00260C14031600024F0204FF42541144BD9
S315000011E01D731C721873A2F8FE13F8BD0121C820E6
S315000011F085F8801400F080F895F88034012BFBD137
S31500001200BDE74FF47A70FFF77BFFBEE700E00140D1
S3150000121000C001401000002000127A00002D3101AC
S31500001220001BB7000095BA0A6C05002021120221A6
S315000012300020004038B50025284C0121C82084F83C
S31500001240285000F059F884F8245094F82430002BE4
S31500001250FBD194F82430214943F0020384F824306A
S3150000126091F82430C3F340009B07F9D41B4A81F858
S31500001270220092F8223003F0FF00002BF9D192F8F9
S315000012804030164960F3C71382F8403091F8403079
S31500001290DB09FBD191F84200104A63F3C71081F8CD
S315000012A0420092F84230DB09FBD192F844000B4928
S315000012B063F3C71082F8440091F84430C3F3C014B6
S315000012C0DB09F9D1012000F0EDF8054B012083F888
S315000012D0BB44BDE8384000F0B5B800BF0030084058
S315000012E000E00140704700BF00BEFEE7A0F101002C
S315000012F00028FBD1704700BF4FF47A7310B400FB8F
S3150000130001F1114C114A2468B2FBF4F2A1FB03046B
S315000013103CB9B0FBF2F0800860B15DF8044BFFF712
S31500001320E5BF9200B1FBF2F1A1FB03132BB908460E
S315000013300028F2D15DF8044B70474FF0FF3C5DF892
S31500001340044B6046FFF7D2BF6C05002000CA9A3BEB
S3150000135070B500240B4B0C4EB3F82021B3F8405166
S31500001360ADB2154025FA04F3DB0704D556F8243050
S31500001370E0B203B1984701340E2CF3D1014BA3F828
S31500001380305170BD006000401805002070B5032084
S3150000139084B000F087F86FF0FF054FF0FF31254A63
S315000013A0254C13885088002BA5640BBF0026012608
S315000013B00B466FF00103CDE90111039138B3918813
S315000013C023F0020359B3D28823F0040322BB01930E
S315000013D019491A4A0B67C2F88032029B03204B67F1
S315000013E0C2F88432039B164C8B67C2F8883200F031
S315000013F029F800230F4931F8022B03F1C00001330D
S315000014000AB144F82020042BF5D104B070BD9088B1
S315000014100028D8D1D28842B123F00803D7E7D28872
S31500001420002AD4D023F00803D1E7002ECFD10B46F3
S31500001430CEE700BF3C3100000080004000E100E044
S3150000144000600040EFF31081012383F31088124BF4
S3150000145033F8102092B22AB133F81020013A92B232
S3150000146023F8102033F810309BB293B910B40B4A0E
S315000014700B4CB2F8FE3334F810009BB243F425430C
S3150000148023EA0003A2F8FE3381F310885DF8044BCB
S31500001490704781F3108870476405002000E0014022
S315000014A04C31000030B4EFF31081012383F3108830
S315000014B00E4A32F810309BB26BB90D4C0D4DB4F894
S315000014C0FE3335F810C09BB243EA0C0343F42543C0
S315000014D09BB2A4F8FE3332F8103001339BB222F8E7
S315000014E0103081F3108830BC704700BF64050020BF
S315000014F000E001404C31000000BE704708B500F026
S3150000150003F8FFF7C1F8FEE74FF4700270B52B4BF6
S315000015102B4CC3F8882000209C60FEF731FEFFF7B5
S31500001520F1FD0120FEF72CFE2368A3F5806383F30B
S315000015300A882448244A0021121A00F055F8234844
S31500001540234A2449121A00F057F8234D234B5B1BFC
S31500001550002B07DD00249E1055F8043B0134984704
S31500001560A642F9DCFFF7B8FDFFF764FE0320FFF79C
S3150000157099FF4FF6FF720024194B03201A825A82F4
S315000015809A82DA821A835A839A83DA83FFF75AFF9A
S315000015900320FFF787FF134B03205C609C60DC6031
S315000015A01C61FFF74FFF0220FEF7EAFDFFF7EEFE94
S315000015B02046BDE87040FFF795BE00BF00ED00E095
S315000015C00000000030000020700500200000002010
S315000015D01000002058310000080000200C000020F8
S315000015E0000D084000000E4002440346934200D11D
S315000015F0704703F8011BF9E70A44431E914200D1E4
S31500001600704710B511F8014B914203F8014FF9D11B
S3150000161010BDFFFF4275696C7420776974682052AB
S31500001620656E6573617320416476616E63656420DF
S31500001630466C657869626C6520536F667477617273
S3150000164065205061636B6167652076657273696FAB
S315000016506E20352E392E3000352E392E3000000002
S3150000166000000905F8B500BFF8BC08BC9E467047E7
S31500001670F8B500BFF8BC08BC9E4670474653505F9D
S3150000168053554343455353203D3D20657272000038
S315000016902E2E2F7372632F68616C5F656E7472797C
S315000016A02E6300005241344D3200000068656C6CB8
S315000016B06F20776F726C6421000000002E2E2F734E
S315000016C072632F6F6C65642E6300FFFF68616C5F49
S315000016D0656E74727900FFFF4F4C45445F52656634
S315000016E07265736800FFFFFF4F4C45445F57525FBA
S315000016F04279746500FFFFFF000000000000000053
S3150000170000000000000000000000000000000000D3
S3150000171000000000000000000000000000000000C3
S3150000172000F0F0F0000000000000000000017F0162
S315000017300000000000000000001C1C1C000000004F
S3150000174000008060301C8C60301C0C000000000023
S315000017500000000000000000000000000000000083
S3150000176000000000000000E00000000000E00000B3
S315000017700086E69F86868686E69F860000011F0114
S31500001780010101011F010100000080C06020F82056
S31500001790E0C00000000003070C18FF70E1810000A4
S315000017A00000070F10107F100F07000080602060F8
S315000017B080000000E02000000F3020309F70DC37F2
S315000017C01030C0000000100E0300071810180700A4
S315000017D00000C02020E0C0000000000080E01F38AC
S315000017E0E88703C43C040000070F1810100B070D10
S315000017F01010080000808C4C38000000000000002B
S3150000180000000000000000000000000000000000D2
S31500001810000000000000000000000000000080E062
S31500001820300804000000000000FEFF010000000078
S31500001830000000000000030F1820400000040830DC
S31500001840E0800000000000000000000001FFFE0034
S3150000185000000000004020180F03000000000000F8
S31500001860000000000000C0000000000000426666A4
S315000018703C18FF183C6666420000000000000300AA
S3150000188000000000000000000000800000000000D2
S31500001890001010101010FF101010101000000000A3
S315000018A0000003000000000000000000000000002F
S315000018B00000000000000000000000000000000022
S315000018C000808C4C38000000000000000000000082
S315000018D00000000000000000001010101010101092
S315000018E010101000000000000000000000000000C2
S315000018F000000000000000000000000000000000E2
S31500001900000000000000000000001C1C1C0000007D
S31500001910000000000000000000000000E0380C009D
S315000019200000000080701C03000000000060380EFC
S315000019300100000000000000000080C06020206060
S31500001940C080000000FEFF010000000001FFFE0055
S315000019500001070E181010180E0701000000808005
S3150000196080C0E000000000000000000000FFFF0053
S315000019700000000000001010101F1F1010100000C3
S315000019800080402020202060C0800000000303006B
S31500001990804020381F070000001C1A191818181854
S315000019A0181F00000080C020202060C080000000BA
S315000019B0000303001010182FE780000000070F1027
S315000019C0101010180F070000000000000000C0E013
S315000019D0F000000000C0B088868180FFFF80800094
S315000019E0000000000010101F1F1010000000E06033
S315000019F0606060606060000000003F100808081822
S31500001A00F0E0000000070B101010101C0F03000080
S31500001A10000080C040202020E0C0000000FCFF2124
S31500001A201008080818F0E0000001070C1810101044
S31500001A30080F03000000C0E06060606060E06000C6
S31500001A40000003000000E01807000000000000008E
S31500001A50001F1F00000000000080C0602020202022
S31500001A6060C080000087EF2C1818303068CF8300E4
S31500001A7000070F0810101010180F07000000C0C054
S31500001A8020202020C0800000001F3F6040404020F2
S31500001A9010FFFE0000000C1C101010080F030000C1
S31500001AA00000000000000000000000000000000030
S31500001AB0000E0E0E0000000000000000001C1C1CA2
S31500001AC00000000000000000000000000000000010
S31500001AD000000000000C0C000000000000000000E8
S31500001AE000583800000000000000000000000080E0
S31500001AF04020100000001028448201000000000071
S31500001B0000000000000001020408100000000000B0
S31500001B100000000000000000008484848484848423
S31500001B208484840000000000000000000000000023
S31500001B3000001020408000000000000000000000AF
S31500001B400000018244281000000010080402010071
S31500001B500000000000C020201010101030E0C0006F
S31500001B600003030000F010080C070300000000004B
S31500001B701C1C1C0000000000000000C0406020206B
S31500001B802040C00000FCFF01F00E03C1FE03807F71
S31500001B900001070E081111101109040200000000CF
S31500001BA080E0E000000000000000807C4340477FAA
S31500001BB0F880000010181F1000000000131F1C10F2
S31500001BC020E0E02020202060C080000000FFFF1001
S31500001BD0101010182FE78000101F1F101010101083
S31500001BE0180F0700000080C0402020202060E00081
S31500001BF000FCFF0100000000000001000001070ECC
S31500001C00181010100804030020E0E02020202040D7
S31500001C10C080000000FFFF000000000001FFFE0082
S31500001C20101F1F10101018080E07010020E0E020FA
S31500001C30202020202060800000FFFF101010107C64
S31500001C4000000000101F1F101010101010180600C2
S31500001C5020E0E020202020206060800000FFFF10B0
S31500001C601010107C00000100101F1F100000000063
S31500001C7000000000000080C06020202040E000003E
S31500001C8000FCFF0100004040C0C140400001070EBB
S31500001C90181010100F0F000020E0E02000000000D8
S31500001CA020E0E02000FFFF101010101010FFFF00D2
S31500001CB0101F1F1000000000101F1F100000202022
S31500001CC020E0E020202000000000000000FFFF00D0
S31500001CD00000000000001010101F1F101010000060
S31500001CE000000000202020E0E0202020000000006E
S31500001CF0000000FFFF0000000060E0808080C07FE1
S31500001D003F00000020E0E020000020A0602020002E
S31500001D1000FFFF30187CE3C000000000101F1F10FA
S31500001D20000001131F1C181020E0E0200000000036
S31500001D300000000000FFFF0000000000000000009F
S31500001D40101F1F10101010101018060020E0E0E001
S31500001D5000000000E0E0E02000FF013FFEC0E01EC2
S31500001D6001FFFF00101F1000031F0300101F1F10AC
S31500001D7020E0E0C0000000000020E02000FF00039B
S31500001D80071C78E08000FF00101F10000000000014
S31500001D90030F1F00000080C060202060C08000008C
S31500001DA000FEFF010000000000FFFE000001070E1C
S31500001DB0181010180C07010020E0E0202020202039
S31500001DC060C0800000FFFF2020202020301F0F0071
S31500001DD0101F1F100000000000000000000080C05F
S31500001DE060202060C080000000FEFF0100000000AF
S31500001DF000FFFE000001070E1111133C7C67210055
S31500001E0020E0E0202020202060C0800000FFFF109E
S31500001E101030F0D0080F0700101F1F10000000033D
S31500001E200F1C10100080C060202020204040E000E1
S31500001E3000070F0C1818303060E08100001F0C08F6
S31500001E4010101010180F07008060202020E0E020FE
S31500001E50202060800100000000FFFF00000000015C
S31500001E6000000000101F1F100000000020E0E0200E
S31500001E70000000000020E02000FFFF00000000003E
S31500001E800000FF0000070F181010101010080700C0
S31500001E902060E0E02000000020E060200000077FD6
S31500001EA0F88000807C03000000000000071F1C076C
S31500001EB00000000020E0E02000E0E0200020E0201C
S31500001EC00007FFF8E01FFFFCE01F00000000031FF3
S31500001ED00300011F03000000002060E0A0000020B6
S31500001EE0E0602000000000038F7CF8C601000000BF
S31500001EF00010181E130001171F1810002060E0E0E4
S31500001F002000000020E06020000001073EF8E018F5
S31500001F100700000000000010101F1F101000000036
S31500001F2000806020202020A0E0E0200000000000CB
S31500001F30C0F03E0F0300000000101C1F1710101009
S31500001F40101806000000000000FC0404040404004D
S31500001F500000000000FF000000000000000000007C
S31500001F60007F404040404000000010E000000000BC
S31500001F700000000000000000031C6080000000005C
S31500001F8000000000000000030C7080000000040444
S31500001F90040404FC0000000000000000000000FF34
S31500001FA000000000000040404040407F000000006C
S31500001FB000000010080C040C0810000000000000CF
S31500001FC0000000000000000000000000000000000B
S31500001FD000000000000000000000000000000000FB
S31500001FE000000000000000000000000080808080EB
S31500001FF080808080808080800000000404080800C3
S3150000200000000000000000000000000000000000CA
S3150000201000000000000000000000000000000000BA
S315000020200000000000000000000098D8446424244A
S31500002030FCF80000000F1F18101010081F1F1018C2
S315000020400020E0F000000000000000000000FFFF9C
S31500002050180804040CF8F00000001F0F18101010E8
S31500002060180F030000000000000000000000000040
S3150000207000E0F8180404043C3800000000030F0CCC
S3150000208010101010080600000000000000000020DC
S31500002090E0F0000000E0F81C04040408FFFF000064
S315000020A000030F18101010081F0F08000000000092
S315000020B000000000000000000000E0F8484444442E
S315000020C04C7870000000030F0C1810101008040064
S315000020D00000000080C0602020E0C000000404046E
S315000020E0FFFF040404040000000010101F1F10105E
S315000020F010000000000000000000000000000000CA
S31500002100000070F88C04048CF874040C007076CF10
S315000021108D8D8D89C87870000020E0F000000000E9
S31500002120000000000000FFFF08040404FCF80000A3
S3150000213000101F1F100000101F1F100000000000DD
S3150000214000606000000000000000040404FCFC00C5
S315000021500000000000001010101F1F1010100000DB
S3150000216000000000000000606000000000000000A9
S31500002170040404FCFC0000000000C0C08080C07F96
S315000021803F0000000020E0F000000000000000001A
S315000021900000FFFF80C0F41C0404000000101F1F95
S315000021A01100031F1C1010000000202020E0F0008A
S315000021B0000000000000000000FFFF00000000001B
S315000021C000001010101F1F1010100000000000006B
S315000021D0000000000000000004FCFC0804FCFC08F1
S315000021E004FCFC00101F1F10001F1F10001F1F10F3
S315000021F00000000000000000000000000004FCFCDD
S3150000220008080404FCF8000000101F1F100000104E
S315000022101F1F10000000000000000000000000006A
S3150000222000E0F0180C04040C18F0E00000030F0C9A
S31500002230101010100C0F030000000000000000003A
S31500002240000000000004FCFC080404040CF8F00084
S315000022500080FFFF889010101C0F03000000000094
S31500002260000000000000000000E0F81C0404040860
S31500002270F8FC000000030F1810109088FFFF800084
S31500002280000000000000000000000000040404FC40
S31500002290FC100804040C0C001010101F1F10101066
S315000022A00000000000000000000000000000000028
S315000022B000003078CCC48484840C1C0000001E18F6
S315000022C010101011190F06000000000000C00000D9
S315000022D00000000000040404FFFF040404000000E2
S315000022E0000000000F1F1010100C0000000000007E
S315000022F000000000000000000004FCFE00000004D6
S31500002300FCFE000000000F1F181010081F0F080029
S3150000231000000000000000000000000000040C3C6B
S31500002320FCC40000C43C0C0400000000010F1E0E9B
S315000023300100000000000000000000000000000096
S31500002340043CFCC400E47CFC84807C040000071F81
S31500002350070000071F070000000000000000000043
S31500002360000000000004041C7CE4C0341C040400CB
S315000023700010101C1601131F1C181000000000008E
S31500002380000000000000000000040C3CFCC400C477
S315000023903C0404000000C080C1370E0100000000AC
S315000023A000000000000000000000000000001C0407
S315000023B004C4F47C1C0400000000101C1F1711103C
S315000023C010180E0000000000000000F80C040000C9
S315000023D000000000001028EF0000000000000000D0
S315000023E00000003F60400000000000000000FF0009
S315000023F000000000000000000000FF0000000000D8
S31500002400000000000000FF00000000000000040CB7
S31500002410F80000000000000000000000EF28100097
S3150000242000000000000040603F00000000000000C7
S3150000243000180602020408102020300800000000E0
S315000024400000000000000000000000000000000086
S315000024500000000000000000000000000000000076
S3150000246000000000000000F800000000000000333B
S315000024703000000000100C06100C060000000000E2
S315000024800000000040C07840C0784000043F0404CB
S315000024903F040400007088FC08300000001820FF8C
S315000024A0211E0000F008F000E018000000211C03C7
S315000024B01E211E0000F00888700000001E21232443
S315000024C01927211010160E00000000000000000061
S315000024D000000000000000E01804020000000007F1
S315000024E01820400000020418E000000000402018F8
S315000024F007000000404080F0804040000202010FCB
S3150000250001020200000000F0000000000101011FAE
S3150000251001010100000000000000000080B0700012
S3150000252000000000000000000000000000010101A2
S315000025300101010100000000000000000030300031
S31500002540000000000000000080601804006018060B
S315000025500100000000E010080810E000000F102045
S3150000256020100F00001010F8000000000020203F8F
S315000025702020000000700808088870000030282419
S3150000258022213000003008888848300000182020BA
S3150000259020110E000000C02010F8000000070424DF
S315000025A0243F240000F80888880808000019212024
S315000025B020110E0000E0108888180000000F11207E
S315000025C020110E0000380808C83808000000003F37
S315000025D0000000000070880808887000001C222196
S315000025E021221C0000E010080810E0000000312243
S315000025F022110F00000000C0C000000000000030E3
S315000026003000000000000080000000000000806034
S3150000261000000000000080402010080000010204B5
S31500002620081020004040404040404000040404049C
S315000026300404040000081020408000000020100858
S3150000264004020100007048080808F000000000308D
S3150000265036010000C030C828E810E000071827241B
S3150000266023140B000000C038E0000000203C2302C9
S315000026700227382008F8888888700000203F20202C
S3150000268020110E00C030080808083800071820205E
S315000026902010080008F808080810E000203F202055
S315000026A020100F0008F88888E8081000203F202036
S315000026B02320180008F88888E8081000203F20002A
S315000026C003000000C0300808083800000718202062
S315000026D0221E020008F808000008F808203F210121
S315000026E001213F20000808F8080800000020203FCC
S315000026F02020000000000808F8080800C08080803C
S315000027007F00000008F888C028180800203F200134
S315000027102638200008F8080000000000203F20208E
S315000027202020300008F8F800F8F80800203F003FA5
S31500002730003F200008F830C00008F808203F2000BD
S3150000274007183F00E01008080810E0000F102020CE
S3150000275020100F0008F808080808F000203F2101A3
S3150000276001010000E01008080810E0000F182424FA
S3150000277038504F0008F8888888887000203F20006D
S31500002780030C302000708808080838000038202123
S3150000279021221C00180808F8080818000000203F2D
S315000027A02000000008F808000008F808001F202094
S315000027B020201F000878880000C838080000073865
S315000027C00E010000F80800F80008F800033C0700B6
S315000027D0073C0300081868808068180820302C031E
S315000027E0032C30200838C800C83808000000203FF5
S315000027F02000000010080808C838080020382621E4
S3150000280020201800000000FE020202000000007FE7
S3150000281040404000000C30C00000000000000001F5
S315000028200638C00000020202FE00000000404040E0
S315000028307F00000000000402020204000000000005
S315000028400000000000000000000000008080808082
S31500002850808080800002020400000000000000006A
S315000028600000000000008080808000000019242203
S3150000287022223F2008F8008080000000003F11203F
S3150000288020110E000000008080800000000E112044
S3150000289020201100000000808088F800000E112022
S315000028A020103F200000808080800000001F222230
S315000028B022221300008080F0888888180020203F9C
S315000028C0202000000000808080808000006B9494AF
S315000028D09493600008F8008080800000203F21006B
S315000028E000203F2000809898000000000020203F34
S315000028F020200000000000809898000000C0808022
S31500002900807F000008F8000080808000203F2402BD
S315000029102D302000000808F8000000000020203FAD
S31500002920202000008080808080808000203F200062
S315000029303F20003F8080008080800000203F2100F3
S3150000294000203F200000808080800000001F2020A3
S3150000295020201F00808000808000000080FFA120D2
S3150000296020110E000000008080808000000E1120E3
S3150000297020A0FF80808080008080800020203F2172
S315000029802000010000008080808080000033242425
S3150000299024241900008080E0808000000000001FD1
S315000029A0202000008080000000808000001F202082
S315000029B020103F20808080000080808000010E3043
S315000029C00806010080800080008080800F300C03A4
S315000029D00C300F0000808000808080000020312EA7
S315000029E00E312000808080000080808080818E7083
S315000029F01806010000808080808080000021302C35
S31500002A002221300000000000807C0202000000004D
S31500002A10003F404000000000FF00000000000000F2
S31500002A20FF0000000002027C800000000040403FE2
S31500002A30000000000006010102020404000000007C
S31500002A400000000000000000000000000000000080
S31500002A500000FC000000000002000000000C020C58
S31500002A60020000000000000090D0BCD0BC90000323
S31500002A70000300001824FE448C0003020702010034
S31500002A801824D8B04C80000300010201C038E43895
S31500002A90E000010202010202080600000000000038
S31500002AA000000000000000F804020000000102041B
S31500002AB0000204F800000004020100009060F860C3
S31500002AC090000000010000002020FC2020000000F3
S31500002AD001000000000000000000080600000000E1
S31500002AE02020202020000000000000000000000040
S31500002AF000000002000000000080601C02000403C9
S31500002B0000000000F8040404F800010202020100BB
S31500002B100008FC00000000020302000018844424A0
S31500002B20180003020202020008042424D80001024D
S31500002B300202010040B088FC800000000003020091
S31500002B403C242424C400010202020100F824242C9F
S31500002B50C0000102020201000C04E41C0400000093
S31500002B6003000000D8242424D80001020202010038
S31500002B7038444444F800000302020100000010003B
S31500002B80000000000200000000002000000000001D
S31500002B900600000000205088040200000000010228
S31500002BA090909090900000000000000000020488C1
S31500002BB050200002010000001804C4241800000080
S31500002BC002000000F804E494F80001020202020088
S31500002BD000E09CF0800002030000030204FC2424B1
S31500002BE0D800020302020100F80404040C000102EA
S31500002BF00202010004FC0404F800020302020100C0
S31500002C0004FC24740C0002030202030004FC247476
S31500002C100C00020302000000F0080444CC4000014E
S31500002C200202010004FC2020FC040203000003024F
S31500002C300404FC040400020203020200000404FC73
S31500002C40040406040403000004FC24D00C0402035C
S31500002C500200030204FC0400000002030202020355
S31500002C60FC3CC03CFC0003000300030004FC30C431
S31500002C70FC04020302000300F8040404F800010245
S31500002C800202010004FC24241800020302000000D2
S31500002C90F8848404F80001020207050004FC246499
S31500002CA09800020302000302182424448C00030245
S31500002CB0020201000C04FC040C00000203020000E6
S31500002CC004FC0000FC04000102020100047C80E018
S31500002CD01C040000030000001CE03CE01C00000394
S31500002CE000030000049C609C040002030003020031
S31500002CF0041CE01C04000002030200000C84641C97
S31500002D0004000203020203000000FE0202000000AB
S31500002D1007040400000E30C000000000000102009D
S31500002D20000202FE00000004040700000004020482
S31500002D30000000000000000000000000000008087D
S31500002D40080808080000020000000000000000005B
S31500002D500040A0A0C00000010202030204FC2020E3
S31500002D60C00000030202010000C020206000000134
S31500002D700202020000C02024FC000001020203023D
S31500002D8000C0A0A0C0000001020202000020F8243A
S31500002D9024040002030202000040A0A060200007F5
S31500002DA00A0A0A0404FC2020C000020302000302EF
S31500002DB00020E4000000000203020000000020E4FE
S31500002DC0000008080807000004FC80E02020020339
S31500002DD0020003020404FC000000020203020200D7
S31500002DE0E020E020C00003000300030020E02020D4
S31500002DF0C00002030200030200C02020C000000140
S31500002E000202010020E02020C000080F0A02010093
S31500002E1000C02020E0000001020A0F0820E0402048
S31500002E2020000203020000000060A0A020000002B3
S31500002E30020203000020F820000000000102020048
S31500002E4020E00020E00000010202030220E02080D2
S31500002E5060200000030100006080E0806000000345
S31500002E6000030000206080602000020300030200CF
S31500002E7020E0208060200808070100000020A060F4
S31500002E802000000203020200000020DE0200000013
S31500002E9000070400000000FF00000000000F000013
S31500002EA00002DE2000000004070000000201020408
S31500002EB00402000000000000000000000000000006
S31500002EC0002F000000000700070000147F147F1485
S31500002ED000242A7F2A12006264081323003649550B
S31500002EE0225000000503000000001C2241000000E3
S31500002EF041221C000014083E08140008083E080879
S31500002F00000000A0600000080808080800006060D3
S31500002F100000002010080402003E5149453E000012
S31500002F20427F4000004261514946002141454B31F4
S31500002F30001814127F10002745454539003C4A49C0
S31500002F404930000171090503003649494936000632
S31500002F504949291E0000363600000000563600009A
S31500002F600008142241000014141414140000412215
S31500002F70140800020151090600324959513E007CED
S31500002F801211127C007F49494936003E41414122D7
S31500002F90007F4141221C007F49494941007F0909C0
S31500002FA00901003E4149497A007F0808087F000070
S31500002FB0417F4100002040413F01007F081422412B
S31500002FC0007F40404040007F020C027F007F0408E3
S31500002FD0107F003E4141413E007F09090906003E3F
S31500002FE04151215E007F0919294600464949493168
S31500002FF00001017F0101003F4040403F001F20408B
S31500003000201F003F4038403F006314081463000748
S315000030100870080700615149454300007F4141009F
S3150000302000552A552A55000041417F00000402013F
S31500003030020400404040404000000102040000201D
S3150000304054545478007F484444380038444444205B
S3150000305000384444487F00385454541800087E0908
S3150000306001020018A4A4A47C007F080404780000D0
S31500003070447D4000004080847D00007F102844008D
S315000030800000417F4000007C04180478007C08049E
S31500003090047800384444443800FC242424180018DA
S315000030A0242418FC007C08040408004854545420C6
S315000030B000043F444020003C4040207C001C20404F
S315000030C0201C003C4030403C004428102844001C92
S315000030D0A0A0A07C004464544C441414141414148A
S315000030E000000000801A06003C000000010C0001F0
S315000030F0020300000000000000000000E1000000E4
S315000031000000000008310000010101161700000050
S31500003110040000001C310000000000000000010057
S315000031200801000000000100000300000004010780
S31500003130070400000004010708040000730074007F
S3150000314075007600020403040404FFFF0100020078
S30D00003150080010000000000059
S3150000315840420F0001000000BD000000950000007D
S3150100A100FFFFFFFFFFFFFFFFFFFFFFFFFFFFFFFF58
S3090100A134FFFFFFFF24
S3150100A200FFFDFFFFFFFFFFFFFFFFFFFFFFFFFFFF59
S3150100A210FFFFFFFFFFFFFFFFFFFFFFFFFFFFFFFF47
S3150100A220FFFFFFFFFFFFFFFFFFFFFFFFFFFFFFFF37
S3150100A230FFFFFFFFFFFFFFFFFFFFFFFFFFFFFFFF27
S3150100A240FFFFFFFFFFFFFFFFFFFFFFFFFFFFFFFF17
S3150100A250FFFFFFFFFFFFFFFFFFFFFFFFFFFFFFFF07
S3150100A260FFFFFFFFFFFFFFFFFFFFFFFFFFFFFFFFF7
S3150100A270FFFFFFFFFFFFFFFFFFFFFFFFFFFFFFFFE7
S3150100A280F8F8FFFFFFFFFFFFFFFFFFFFFFFFFFFFE5
S3150100A290FFFFFFFFFFFFFFFFFFFFFFFFFFFFFFFFC7
S3150100A2A0FFFFFFFFFFFFFFFFFFFFFFFFFFFFFFFFB7
S3150100A2B0FFFFFFFFFFFFFFFFFFFFFFFFFFFFFFFFA7
S3150100A2C0FFFFFFFFFFFFFFFFFFFFFFFFFFFFFFFF97
S705000014FDE9
